:030000000208D320
:0C08D300787FE4F6D8FD75812002091A38
:0A0B3C003F065B4F666D7D077F6F7B
:100B0F00020A000A020C000A021200030208000A7D
:0C0B1F00010E00020F0000C100011100D7
:100B2C00438901758CFC758A18D2AFD2A9D28C225C
:040AEB007F0A7E0000
:100AEF00E4FDFCC3ED9FEC9E5015E4FBFA0BBB003D
:0F0AFF00010AEB64784A70F50DBD00010C80E42C
:010B0E0022C4
:040A4000AB07AA0650
:100A44007C007D0A1209EB8F14AE02AF037C007D9B
:100A54000A1209EBA905C2A2C2A3C2A4E514900B11
:100A64003C93F5807F027E00120AEFD2A2C2A3C299
:0C0A7400A4AF01EF93F5807F02020AEFAF
:100ABC00C292C291C290C295C294C293E50E1460C8
:100ACC000F14601114601324037013D290D295226A
:0F0ADC00D291D29522D293D29222D294D2922248
:1008000020B11F120AEB20B119B200300005E4F547
:1008100011800C850A08850B09E4F50E120ABC301C
:10082000B1FD2000030208D220B252120AEB20B21E
:100830004CE51114601C14602E2402703DC3E50BBE
:100840009463E50A94005032050BE50B702C050A01
:100850008028C3E50D9463E50C9400501D050DE55B
:100860000D7017050C8013C3E5139463E512940013
:1008700050080513E5137002051230B2FD20B35283
:10088000120AEB20B34CE51114601C14602E2402F4
:10089000703DD3E50B9401E50A94004032E50B1559
:1008A0000B702C150A8028D3E50D9401E50C9400FB
:1008B000401DE50D150D7017150C8013D3E513942D
:1008C00001E51294004008E513151370021512306B
:0308D000B3FD2253
:10095F00120B2C806E120800300021E51114600D6F
:10096F00146010240270EEAF0BAE0A800AAF0DAE0A
:10097F000C8004AF13AE12120A4080D9AF09AE0833
:10098F00120A40E50E14601B14602914603A240308
:10099F0070C3E509450870BD851208851309750EEA
:1009AF00018020E509450870AC850C08850D097597
:1009BF000E02800FE5094508709B85120885130903
:1009CF00750E03120ABC808DE50945087087850AEC
:0C09DF0008850B09F50E120ABC02096421
:03000B00020A8066
:100A8000C0E0C0D0758CFC758A180510E5107002A6
:100A9000050FC394E8E50F9403401C750F00751013
:100AA00000200013D3E5099400E50894004008E510
:0C0AB00009150970021508D0D0D0E03202
:1008DF0002095FE493A3F8E493A34003F68001F2C7
:1008EF0008DFF48029E493A3F85407240CC8C3331A
:1008FF00C4540F4420C8834004F456800146F6DFE9
:10090F00E4800B0102040810204080900B0FE47E5E
:10091F00019360BCA3FF543F30E509541FFEE493DD
:10092F00A360010ECF54C025E060A840B8E493A3A4
:10093F00FAE493A3F8E493A3C8C582C8CAC583CACF
:10094F00F0A3C8C582C8CAC583CADFE9DEE780BE87
:010B2B0000C9
:1009EB00BC000BBE0029EF8DF084FFADF022E4CCF0
:1009FB00F875F008EF2FFFEE33FEEC33FCEE9DECB9
:100A0B00984005FCEE9DFE0FD5F0E9E4CEFD22EDFE
:100A1B00F8F5F0EE8420D21CFEADF075F008EF2F48
:100A2B00FFED33FD4007985006D5F0F222C398FD39
:050A3B000FD5F0EA22D6
:00000001FF
